{"abi":[{"type":"constructor","inputs":[{"name":"_duelAddress","type":"address","internalType":"address"},{"name":"_amount","type":"uint256","internalType":"uint256"},{"name":"_fundingTime","type":"uint256","internalType":"uint256"},{"name":"_duelFee","type":"uint256","internalType":"uint256"},{"name":"_initialFunder","type":"address","internalType":"address"}],"stateMutability":"payable"},{"type":"receive","stateMutability":"payable"},{"type":"function","name":"amount","inputs":[],"outputs":[{"name":"","type":"uint256","internalType":"uint256"}],"stateMutability":"view"},{"type":"function","name":"balances","inputs":[{"name":"user","type":"address","internalType":"address"}],"outputs":[{"name":"balance","type":"uint256","internalType":"uint256"}],"stateMutability":"view"},{"type":"function","name":"claimFunds","inputs":[],"outputs":[],"stateMutability":"nonpayable"},{"type":"function","name":"creationTime","inputs":[],"outputs":[{"name":"","type":"uint256","internalType":"uint256"}],"stateMutability":"view"},{"type":"function","name":"duelAddress","inputs":[],"outputs":[{"name":"","type":"address","internalType":"address"}],"stateMutability":"view"},{"type":"function","name":"duelFee","inputs":[],"outputs":[{"name":"","type":"uint256","internalType":"uint256"}],"stateMutability":"view"},{"type":"function","name":"fundingDuration","inputs":[],"outputs":[{"name":"","type":"uint256","internalType":"uint256"}],"stateMutability":"view"},{"type":"function","name":"sendPayout","inputs":[{"name":"_payoutAddress","type":"address","internalType":"address payable"},{"name":"_duelWallet","type":"address","internalType":"address"}],"outputs":[{"name":"","type":"bool","internalType":"bool"}],"stateMutability":"nonpayable"},{"type":"event","name":"FundsClaimed","inputs":[{"name":"user","type":"address","indexed":true,"internalType":"address"},{"name":"amount","type":"uint256","indexed":true,"internalType":"uint256"}],"anonymous":false},{"type":"event","name":"PayoutSent","inputs":[{"name":"payoutAddress","type":"address","indexed":true,"internalType":"address"},{"name":"amount","type":"uint256","indexed":true,"internalType":"uint256"}],"anonymous":false},{"type":"error","name":"DuelOption__AmountExceeded","inputs":[]},{"type":"error","name":"DuelOption__BalanceIsZero","inputs":[]},{"type":"error","name":"DuelOption__DuelNotExpired","inputs":[]},{"type":"error","name":"DuelOption__FundingTimeEnded","inputs":[]},{"type":"error","name":"DuelOption__PayoutFailed","inputs":[]},{"type":"error","name":"DuelOption__Unauthorized","inputs":[]}],"bytecode":{"object":"0x608060405260405161077f38038061077f83398101604081905261002291610098565b600480546001600160a01b0319166001600160a01b038716179055600084905542600155600283905560038290553415610072576001600160a01b03811660009081526005602052604090203490555b50505050506100e8565b80516001600160a01b038116811461009357600080fd5b919050565b600080600080600060a086880312156100b057600080fd5b6100b98661007c565b94506020860151935060408601519250606086015191506100dc6080870161007c565b90509295509295909350565b610688806100f76000396000f3fe60806040526004361061007f5760003560e01c8063aa8c217c1161004e578063aa8c217c146101c1578063ac307773146101d7578063d8270dce146101ee578063e4863c9b1461020457600080fd5b80630855e4d1146101035780631bc3a01c146101405780631fc3b0e81461016457806327e235e31461019457600080fd5b366100fe576000544711156100a7576040516304bf4f2760e01b815260040160405180910390fd5b6002546001546100b7919061055c565b4211156100d757604051633da6f33160e21b815260040160405180910390fd5b33600090815260056020526040812080543492906100f690849061055c565b925050819055005b600080fd5b34801561010f57600080fd5b50600454610123906001600160a01b031681565b6040516001600160a01b0390911681526020015b60405180910390f35b34801561014c57600080fd5b5061015660025481565b604051908152602001610137565b34801561017057600080fd5b5061018461017f366004610587565b61021a565b6040519015158152602001610137565b3480156101a057600080fd5b506101566101af3660046105c0565b60056020526000908152604090205481565b3480156101cd57600080fd5b5061015660005481565b3480156101e357600080fd5b506101ec61038f565b005b3480156101fa57600080fd5b5061015660015481565b34801561021057600080fd5b5061015660035481565b6004546000906001600160a01b03163314610248576040516306b1fbcf60e51b815260040160405180910390fd5b60006127106003544761025b91906105e4565b61026591906105fb565b90506000610273824761061d565b90506000856001600160a01b03168260405160006040518083038185875af1925050503d80600081146102c2576040519150601f19603f3d011682016040523d82523d6000602084013e6102c7565b606091505b505090506000856001600160a01b03168460405160006040518083038185875af1925050503d8060008114610318576040519150601f19603f3d011682016040523d82523d6000602084013e61031d565b606091505b5050905081158061032c575080155b1561034a57604051631b8b373d60e01b815260040160405180910390fd5b60405147906001600160a01b038916907f6c114f03096d92b098f0f087d8fd4a756d362d86a9649a07142404e7fd1d77b590600090a360019450505050505b92915050565b6004805460408051635f60f48560e01b815290516001600160a01b03909216928392635f60f48592808301926000929182900301818387803b1580156103d457600080fd5b505af11580156103e8573d6000803e3d6000fd5b50505050806001600160a01b0316638747d7246040518163ffffffff1660e01b8152600401602060405180830381865afa15801561042a573d6000803e3d6000fd5b505050506040513d601f19601f8201168201806040525081019061044e9190610630565b61046b5760405163eca05dbd60e01b815260040160405180910390fd5b336000908152600560205260408120549081900361049c57604051631305650560e21b815260040160405180910390fd5b336000818152600560205260408082208290555190919083908381818185875af1925050503d80600081146104ed576040519150601f19603f3d011682016040523d82523d6000602084013e6104f2565b606091505b505090508061051457604051631b8b373d60e01b815260040160405180910390fd5b604051829033907fa65a8b4f7f65a1063243d7f7e9e4da00ff767599acf21549ef2548a45d1695ae90600090a3505050565b634e487b7160e01b600052601160045260246000fd5b8082018082111561038957610389610546565b6001600160a01b038116811461058457600080fd5b50565b6000806040838503121561059a57600080fd5b82356105a58161056f565b915060208301356105b58161056f565b809150509250929050565b6000602082840312156105d257600080fd5b81356105dd8161056f565b9392505050565b808202811582820484141761038957610389610546565b60008261061857634e487b7160e01b600052601260045260246000fd5b500490565b8181038181111561038957610389610546565b60006020828403121561064257600080fd5b815180151581146105dd57600080fdfea2646970667358221220737bce3519e88098c335178320b05ecb5de824cd378b270874e38c01f91c08d964736f6c63430008180033","linkReferences":{}},"methodIdentifiers":{"amount()":"aa8c217c","balances(address)":"27e235e3","claimFunds()":"ac307773","creationTime()":"d8270dce","duelAddress()":"0855e4d1","duelFee()":"e4863c9b","fundingDuration()":"1bc3a01c","sendPayout(address,address)":"1fc3b0e8"},"storageLayout":{"storage":[{"astId":52959,"contract":"src/DuelOption.sol:DuelOption","label":"amount","offset":0,"slot":"0","type":"t_uint256"},{"astId":52961,"contract":"src/DuelOption.sol:DuelOption","label":"creationTime","offset":0,"slot":"1","type":"t_uint256"},{"astId":52963,"contract":"src/DuelOption.sol:DuelOption","label":"fundingDuration","offset":0,"slot":"2","type":"t_uint256"},{"astId":52965,"contract":"src/DuelOption.sol:DuelOption","label":"duelFee","offset":0,"slot":"3","type":"t_uint256"},{"astId":52967,"contract":"src/DuelOption.sol:DuelOption","label":"duelAddress","offset":0,"slot":"4","type":"t_address"},{"astId":52971,"contract":"src/DuelOption.sol:DuelOption","label":"balances","offset":0,"slot":"5","type":"t_mapping(t_address,t_uint256)"}],"types":{"t_address":{"encoding":"inplace","label":"address","numberOfBytes":"20"},"t_mapping(t_address,t_uint256)":{"encoding":"mapping","key":"t_address","label":"mapping(address => uint256)","numberOfBytes":"32","value":"t_uint256"},"t_uint256":{"encoding":"inplace","label":"uint256","numberOfBytes":"32"}}},"id":61}