{"abi":[{"type":"constructor","inputs":[],"stateMutability":"nonpayable"},{"type":"function","name":"UPGRADE_INTERFACE_VERSION","inputs":[],"outputs":[{"name":"","type":"string","internalType":"string"}],"stateMutability":"view"},{"type":"function","name":"agreedWinner","inputs":[],"outputs":[{"name":"","type":"address","internalType":"address"}],"stateMutability":"view"},{"type":"function","name":"amount","inputs":[],"outputs":[{"name":"","type":"uint256","internalType":"uint256"}],"stateMutability":"view"},{"type":"function","name":"creationTime","inputs":[],"outputs":[{"name":"","type":"uint256","internalType":"uint256"}],"stateMutability":"view"},{"type":"function","name":"decisionLockDuration","inputs":[],"outputs":[{"name":"","type":"uint256","internalType":"uint256"}],"stateMutability":"view"},{"type":"function","name":"decisionMade","inputs":[],"outputs":[{"name":"","type":"bool","internalType":"bool"}],"stateMutability":"view"},{"type":"function","name":"duelExpiredOrFinished","inputs":[],"outputs":[{"name":"","type":"bool","internalType":"bool"}],"stateMutability":"view"},{"type":"function","name":"duelId","inputs":[],"outputs":[{"name":"","type":"uint256","internalType":"uint256"}],"stateMutability":"view"},{"type":"function","name":"duelWallet","inputs":[],"outputs":[{"name":"","type":"address","internalType":"address"}],"stateMutability":"view"},{"type":"function","name":"factory","inputs":[],"outputs":[{"name":"","type":"address","internalType":"address"}],"stateMutability":"view"},{"type":"function","name":"fundingDuration","inputs":[],"outputs":[{"name":"","type":"uint256","internalType":"uint256"}],"stateMutability":"view"},{"type":"function","name":"initialize","inputs":[{"name":"_duelId","type":"uint256","internalType":"uint256"},{"name":"_factory","type":"address","internalType":"address"},{"name":"_duelWallet","type":"address","internalType":"address"},{"name":"_title","type":"string","internalType":"string"},{"name":"_amount","type":"uint256","internalType":"uint256"},{"name":"_payoutA","type":"address","internalType":"address"},{"name":"_playerA","type":"address","internalType":"address"},{"name":"_playerB","type":"address","internalType":"address"},{"name":"_fundingDuration","type":"uint256","internalType":"uint256"},{"name":"_decisionLockDuration","type":"uint256","internalType":"uint256"},{"name":"_judge","type":"address","internalType":"address"}],"outputs":[],"stateMutability":"nonpayable"},{"type":"function","name":"judge","inputs":[],"outputs":[{"name":"","type":"address","internalType":"address"}],"stateMutability":"view"},{"type":"function","name":"judgeAccept","inputs":[],"outputs":[{"name":"","type":"bool","internalType":"bool"}],"stateMutability":"nonpayable"},{"type":"function","name":"judgeAccepted","inputs":[],"outputs":[{"name":"","type":"bool","internalType":"bool"}],"stateMutability":"view"},{"type":"function","name":"judgeDecide","inputs":[{"name":"_winner","type":"address","internalType":"address"}],"outputs":[{"name":"","type":"bool","internalType":"bool"}],"stateMutability":"nonpayable"},{"type":"function","name":"optionA","inputs":[],"outputs":[{"name":"","type":"address","internalType":"address"}],"stateMutability":"view"},{"type":"function","name":"optionB","inputs":[],"outputs":[{"name":"","type":"address","internalType":"address"}],"stateMutability":"view"},{"type":"function","name":"owner","inputs":[],"outputs":[{"name":"","type":"address","internalType":"address"}],"stateMutability":"view"},{"type":"function","name":"payoutAddresses","inputs":[{"name":"player","type":"address","internalType":"address"}],"outputs":[{"name":"payoutAddress","type":"address","internalType":"address"}],"stateMutability":"view"},{"type":"function","name":"playerA","inputs":[],"outputs":[{"name":"","type":"address","internalType":"address"}],"stateMutability":"view"},{"type":"function","name":"playerAgreed","inputs":[{"name":"player","type":"address","internalType":"address"}],"outputs":[{"name":"","type":"bool","internalType":"bool"}],"stateMutability":"view"},{"type":"function","name":"playerB","inputs":[],"outputs":[{"name":"","type":"address","internalType":"address"}],"stateMutability":"view"},{"type":"function","name":"playerBAccept","inputs":[{"name":"_payoutB","type":"address","internalType":"address"}],"outputs":[{"name":"","type":"bool","internalType":"bool"}],"stateMutability":"payable"},{"type":"function","name":"playerBAccepted","inputs":[],"outputs":[{"name":"","type":"bool","internalType":"bool"}],"stateMutability":"view"},{"type":"function","name":"playersAgree","inputs":[{"name":"_winner","type":"address","internalType":"address"}],"outputs":[{"name":"","type":"bool","internalType":"bool"}],"stateMutability":"nonpayable"},{"type":"function","name":"proxiableUUID","inputs":[],"outputs":[{"name":"","type":"bytes32","internalType":"bytes32"}],"stateMutability":"view"},{"type":"function","name":"renounceOwnership","inputs":[],"outputs":[],"stateMutability":"nonpayable"},{"type":"function","name":"setOptionsAddresses","inputs":[{"name":"_optionA","type":"address","internalType":"address"},{"name":"_optionB","type":"address","internalType":"address"}],"outputs":[],"stateMutability":"nonpayable"},{"type":"function","name":"setPayoutAddress","inputs":[{"name":"_payoutAddress","type":"address","internalType":"address"}],"outputs":[{"name":"","type":"bool","internalType":"bool"}],"stateMutability":"nonpayable"},{"type":"function","name":"title","inputs":[],"outputs":[{"name":"","type":"string","internalType":"string"}],"stateMutability":"view"},{"type":"function","name":"transferOwnership","inputs":[{"name":"newOwner","type":"address","internalType":"address"}],"outputs":[],"stateMutability":"nonpayable"},{"type":"function","name":"updateStatus","inputs":[],"outputs":[],"stateMutability":"nonpayable"},{"type":"function","name":"upgradeToAndCall","inputs":[{"name":"newImplementation","type":"address","internalType":"address"},{"name":"data","type":"bytes","internalType":"bytes"}],"outputs":[],"stateMutability":"payable"},{"type":"event","name":"DuelCompleted","inputs":[{"name":"winner","type":"address","indexed":true,"internalType":"address"}],"anonymous":false},{"type":"event","name":"DuelExpired","inputs":[],"anonymous":false},{"type":"event","name":"Initialized","inputs":[{"name":"version","type":"uint64","indexed":false,"internalType":"uint64"}],"anonymous":false},{"type":"event","name":"OwnershipTransferred","inputs":[{"name":"previousOwner","type":"address","indexed":true,"internalType":"address"},{"name":"newOwner","type":"address","indexed":true,"internalType":"address"}],"anonymous":false},{"type":"event","name":"ParticipantAccepted","inputs":[{"name":"participant","type":"address","indexed":true,"internalType":"address"}],"anonymous":false},{"type":"event","name":"PayoutAddressSet","inputs":[{"name":"player","type":"address","indexed":true,"internalType":"address"},{"name":"payoutAddress","type":"address","indexed":true,"internalType":"address"}],"anonymous":false},{"type":"event","name":"PayoutSent","inputs":[],"anonymous":false},{"type":"event","name":"Upgraded","inputs":[{"name":"implementation","type":"address","indexed":true,"internalType":"address"}],"anonymous":false},{"type":"error","name":"AddressEmptyCode","inputs":[{"name":"target","type":"address","internalType":"address"}]},{"type":"error","name":"DuelImplementation__AlreadyAccepted","inputs":[{"name":"","type":"address","internalType":"address"}]},{"type":"error","name":"DuelImplementation__DuelExpired","inputs":[]},{"type":"error","name":"DuelImplementation__FundingDurationExceeded","inputs":[]},{"type":"error","name":"DuelImplementation__FundingFailed","inputs":[]},{"type":"error","name":"DuelImplementation__InvalidETHValue","inputs":[]},{"type":"error","name":"DuelImplementation__InvalidWinner","inputs":[]},{"type":"error","name":"DuelImplementation__JudgeExists","inputs":[]},{"type":"error","name":"DuelImplementation__NotDecisionPeriod","inputs":[]},{"type":"error","name":"DuelImplementation__OnlyFactory","inputs":[]},{"type":"error","name":"DuelImplementation__OnlyJudge","inputs":[]},{"type":"error","name":"DuelImplementation__OnlyPlayerB","inputs":[]},{"type":"error","name":"DuelImplementation__PayoutFailed","inputs":[]},{"type":"error","name":"DuelImplementation__Unauthorized","inputs":[]},{"type":"error","name":"ERC1967InvalidImplementation","inputs":[{"name":"implementation","type":"address","internalType":"address"}]},{"type":"error","name":"ERC1967NonPayable","inputs":[]},{"type":"error","name":"FailedCall","inputs":[]},{"type":"error","name":"InvalidInitialization","inputs":[]},{"type":"error","name":"NotInitializing","inputs":[]},{"type":"error","name":"OwnableInvalidOwner","inputs":[{"name":"owner","type":"address","internalType":"address"}]},{"type":"error","name":"OwnableUnauthorizedAccount","inputs":[{"name":"account","type":"address","internalType":"address"}]},{"type":"error","name":"UUPSUnauthorizedCallContext","inputs":[]},{"type":"error","name":"UUPSUnsupportedProxiableUUID","inputs":[{"name":"slot","type":"bytes32","internalType":"bytes32"}]}],"bytecode":{"object":"0x60a06040523060805234801561001457600080fd5b5061001d610022565b6100d4565b7ff0c57e16840df040f15088dc2f81fe391c3923bec73e23a9662efc9c229c6a00805468010000000000000000900460ff16156100725760405163f92ee8a960e01b815260040160405180910390fd5b80546001600160401b03908116146100d15780546001600160401b0319166001600160401b0390811782556040519081527fc7f505b2f371ae2175ee4913f4499e1f2633a7b5936321eed1cdaeb6115181d29060200160405180910390a15b50565b608051611d946100fd600039600081816114580152818161148101526115c70152611d946000f3fe6080604052600436106101f95760003560e01c8063715018a61161010d578063ad3cb1cc116100a0578063d8270dce1161006f578063d8270dce146105df578063dd2f5ad7146105f5578063e494eacb1461060b578063eb8d7d8514610620578063f2fde38b1461063657600080fd5b8063ad3cb1cc1461054d578063c45a01551461057e578063cac911911461059e578063cb1bec6e146105be57600080fd5b80639ac8c762116100dc5780639ac8c762146104e45780639d9269ea146104f7578063a285c54a14610517578063aa8c217c1461053757600080fd5b8063715018a6146104585780638747d7241461046d5780638da5cb5b1461048757806395140ef6146104c457600080fd5b806333ea51a8116101905780634f1ef2861161015f5780634f1ef286146103c357806352d1902d146103d8578063573255f4146103ed5780635f60f4851461040d57806360d4b8be1461042257600080fd5b806333ea51a814610340578063455d0d8e146103605780634a79d50c146103805780634e95716e146103a257600080fd5b806313285c7d116101cc57806313285c7d146102bc578063136b914d146102dc5780631bc3a01c146102fc5780632157409d1461032057600080fd5b806302b37679146101fe5780630638d3421461023b5780630ba83c6d1461027b57806311bb15371461029c575b600080fd5b34801561020a57600080fd5b5060025461021e906001600160a01b031681565b6040516001600160a01b0390911681526020015b60405180910390f35b34801561024757600080fd5b5061026b61025636600461192c565b60106020526000908152604090205460ff1681565b6040519015158152602001610232565b34801561028757600080fd5b5060025461026b90600160b01b900460ff1681565b3480156102a857600080fd5b5060065461021e906001600160a01b031681565b3480156102c857600080fd5b5061026b6102d736600461192c565b610656565b3480156102e857600080fd5b5060045461021e906001600160a01b031681565b34801561030857600080fd5b50610312600b5481565b604051908152602001610232565b34801561032c57600080fd5b5060035461021e906001600160a01b031681565b34801561034c57600080fd5b5061026b61035b36600461192c565b6108fe565b34801561036c57600080fd5b5061026b61037b36600461192c565b6109d9565b34801561038c57600080fd5b50610395610af5565b604051610232919061196b565b3480156103ae57600080fd5b5060025461026b90600160a81b900460ff1681565b6103d66103d1366004611a2a565b610b83565b005b3480156103e457600080fd5b50610312610ba2565b3480156103f957600080fd5b5060075461021e906001600160a01b031681565b34801561041957600080fd5b506103d6610bbf565b34801561042e57600080fd5b5061021e61043d36600461192c565b600f602052600090815260409020546001600160a01b031681565b34801561046457600080fd5b506103d6610cce565b34801561047957600080fd5b50600e5461026b9060ff1681565b34801561049357600080fd5b507f9016d09d72d40fdae2fd8ceac6b6234c7706214fd39c1cd1e609a0528c199300546001600160a01b031661021e565b3480156104d057600080fd5b506103d66104df366004611a8c565b610ce2565b61026b6104f236600461192c565b610ef4565b34801561050357600080fd5b5060085461021e906001600160a01b031681565b34801561052357600080fd5b5060055461021e906001600160a01b031681565b34801561054357600080fd5b5061031260095481565b34801561055957600080fd5b50610395604051806040016040528060058152602001640352e302e360dc1b81525081565b34801561058a57600080fd5b5060015461021e906001600160a01b031681565b3480156105aa57600080fd5b506103d66105b9366004611b6b565b6110a1565b3480156105ca57600080fd5b5060025461026b90600160a01b900460ff1681565b3480156105eb57600080fd5b50610312600a5481565b34801561060157600080fd5b5061031260005481565b34801561061757600080fd5b5061026b6110fa565b34801561062c57600080fd5b50610312600c5481565b34801561064257600080fd5b506103d661065136600461192c565b6111ea565b600080600c54600a546106699190611b9e565b90506000600b548261067b9190611b9e565b90508142108061068a57508042115b156106a857604051632319a2cb60e01b815260040160405180910390fd5b6106b0610bbf565b600e5460ff16156106d457604051632fde205960e01b815260040160405180910390fd5b6007546001600160a01b0316156106fe576040516316c4214d60e11b815260040160405180910390fd5b6005546001600160a01b0316331480159061072457506006546001600160a01b03163314155b15610742576040516339ade7cd60e21b815260040160405180910390fd5b6003546001600160a01b0385811691161480159061076e57506004546001600160a01b03858116911614155b1561078c5760405163efdfc27960e01b815260040160405180910390fd5b3360009081526010602052604090205460ff16156107c457604051630b0212eb60e31b81523360048201526024015b60405180910390fd5b6008546001600160a01b031661080e57600880546001600160a01b0319166001600160a01b038616179055336000908152601060205260409020805460ff191660011790556108f4565b6008546001600160a01b0385811691161461083c5760405163efdfc27960e01b815260040160405180910390fd5b33600090815260106020526040808220805460ff191660011790556005546001600160a01b0316825290205460ff16801561089157506006546001600160a01b031660009081526010602052604090205460ff165b156108f4576002805460ff60b01b1916600160b01b179055600e805460ff191660011790556108bf84611228565b6040516001600160a01b038516907f15a9c6c1a4bfc3bba3f7d5d56714f99acf30e10ec6043b56a6a032d530325fb990600090a25b5060019392505050565b6000600b54600a546109109190611b9e565b42111561093057604051630a64316f60e31b815260040160405180910390fd5b610938610bbf565b6005546001600160a01b0316331480159061095e57506006546001600160a01b03163314155b1561097c576040516339ade7cd60e21b815260040160405180910390fd5b336000818152600f602052604080822080546001600160a01b0319166001600160a01b03871690811790915590519092917f86595dc4ed4838fd84eeed07a9f42ea9af43a730d94d90334e779b82264c0d7c91a35060015b919050565b600080600c54600a546109ec9190611b9e565b90506000600b54826109fe9190611b9e565b905081421080610a0d57508042115b15610a2b57604051632319a2cb60e01b815260040160405180910390fd5b610a33610bbf565b600e5460ff1615610a5757604051632fde205960e01b815260040160405180910390fd5b6007546001600160a01b03163314610a825760405163026780ab60e11b815260040160405180910390fd5b6003546001600160a01b03858116911614801590610aae57506004546001600160a01b03858116911614155b15610acc5760405163efdfc27960e01b815260040160405180910390fd5b6002805460ff60b01b1916600160b01b179055600e805460ff191660011790556108bf84611228565b600d8054610b0290611bbf565b80601f0160208091040260200160405190810160405280929190818152602001828054610b2e90611bbf565b8015610b7b5780601f10610b5057610100808354040283529160200191610b7b565b820191906000526020600020905b815481529060010190602001808311610b5e57829003601f168201915b505050505081565b610b8b61144d565b610b94826114f2565b610b9e82826114fa565b5050565b6000610bac6115bc565b50600080516020611d3f83398151915290565b600b54600a54610bcf9190611b9e565b421115610c6657600254600160a01b900460ff161580610bf95750600254600160a81b900460ff16155b80610c1157506009546003546001600160a01b031631105b80610c2957506009546004546001600160a01b031631105b15610c6657600e805460ff191660011790556040517fbbb912f26e8e48e1bd84f822cd70635b13c4c82ac3b88df652df992fa4450caa90600090a1565b6000600c54600a54610c789190611b9e565b90506000600b5482610c8a9190611b9e565b905080421115610b9e57600e805460ff191660011790556040517fbbb912f26e8e48e1bd84f822cd70635b13c4c82ac3b88df652df992fa4450caa90600090a15050565b610cd6611605565b610ce06000611660565b565b7ff0c57e16840df040f15088dc2f81fe391c3923bec73e23a9662efc9c229c6a008054600160401b810460ff16159067ffffffffffffffff16600081158015610d285750825b905060008267ffffffffffffffff166001148015610d455750303b155b905081158015610d53575080155b15610d715760405163f92ee8a960e01b815260040160405180910390fd5b845467ffffffffffffffff191660011785558315610d9b57845460ff60401b1916600160401b1785555b610da48a6116d1565b610dac6116e2565b6001600160a01b038616610dce576002805460ff60a01b1916600160a01b1790555b8f6000819055508e600160006101000a8154816001600160a01b0302191690836001600160a01b031602179055508d600260006101000a8154816001600160a01b0302191690836001600160a01b031602179055508c600d9081610e329190611c49565b5060098c90556001600160a01b038a81166000818152600f6020526040902080546001600160a01b03199081168f8516179091556005805482169092179091556006805482168c841617905542600a55600b8a9055600c899055600780549091169188169190911790558315610ee257845460ff60401b19168555604051600181527fc7f505b2f371ae2175ee4913f4499e1f2633a7b5936321eed1cdaeb6115181d29060200160405180910390a15b50505050505050505050505050505050565b6000600b54600a54610f069190611b9e565b421115610f2657604051630a64316f60e31b815260040160405180910390fd5b610f2e610bbf565b600254600160a81b900460ff1615610f6857600654604051630b0212eb60e31b81526001600160a01b0390911660048201526024016107bb565b6006546001600160a01b03163314610f935760405163167dcd4f60e31b815260040160405180910390fd5b34600003610fb4576040516304153cbf60e01b815260040160405180910390fd5b336000908152600f602052604080822080546001600160a01b0319166001600160a01b038681169190911790915560028054600160a81b60ff60a81b19909116179055600454915191169034908381818185875af1925050503d8060008114611039576040519150601f19603f3d011682016040523d82523d6000602084013e61103e565b606091505b505090508061106057604051639bd3ad0360e01b815260040160405180910390fd5b6006546040516001600160a01b03909116907fdcf245828b7568b018c107045bebc626a1665b41b378ac28a78a6f63eb59066090600090a250600192915050565b6001546001600160a01b031633146110cc5760405163b872d04b60e01b815260040160405180910390fd5b600380546001600160a01b039384166001600160a01b03199182161790915560048054929093169116179055565b6000600b54600a5461110c9190611b9e565b42111561112c57604051630a64316f60e31b815260040160405180910390fd5b611134610bbf565b6007546001600160a01b0316331461115f5760405163026780ab60e11b815260040160405180910390fd5b600254600160a01b900460ff161561119957600754604051630b0212eb60e31b81526001600160a01b0390911660048201526024016107bb565b6002805460ff60a01b1916600160a01b1790556007546040516001600160a01b03909116907fdcf245828b7568b018c107045bebc626a1665b41b378ac28a78a6f63eb59066090600090a250600190565b6111f2611605565b6001600160a01b03811661121c57604051631e4fbdf760e01b8152600060048201526024016107bb565b61122581611660565b50565b6003546000906001600160a01b039081169083160361125357506005546001600160a01b0316611294565b6004546001600160a01b039081169083160361127b57506006546001600160a01b0316611294565b60405163efdfc27960e01b815260040160405180910390fd5b6001600160a01b038181166000908152600f60205260408082205460035460025492519185166024830181905292851660448301529193919091169060640160408051601f198184030181529181526020820180516001600160e01b03166303f8761d60e31b179052516113089190611d09565b6000604051808303816000865af19150503d8060008114611345576040519150601f19603f3d011682016040523d82523d6000602084013e61134a565b606091505b50506004546002546040516001600160a01b038681166024830152918216604482015292935060009291169060640160408051601f198184030181529181526020820180516001600160e01b03166303f8761d60e31b179052516113ae9190611d09565b6000604051808303816000865af19150503d80600081146113eb576040519150601f19603f3d011682016040523d82523d6000602084013e6113f0565b606091505b505090508115806113ff575080155b1561141d57604051636031623760e11b815260040160405180910390fd5b6040517ff7e4adf68a1353f76707d59e21402c5077408a7d2eacdb9fd54c6939ca16b07d90600090a15050505050565b306001600160a01b037f00000000000000000000000000000000000000000000000000000000000000001614806114d457507f00000000000000000000000000000000000000000000000000000000000000006001600160a01b03166114c8600080516020611d3f833981519152546001600160a01b031690565b6001600160a01b031614155b15610ce05760405163703e46dd60e11b815260040160405180910390fd5b611225611605565b816001600160a01b03166352d1902d6040518163ffffffff1660e01b8152600401602060405180830381865afa925050508015611554575060408051601f3d908101601f1916820190925261155191810190611d25565b60015b61157c57604051634c9c8ce360e01b81526001600160a01b03831660048201526024016107bb565b600080516020611d3f83398151915281146115ad57604051632a87526960e21b8152600481018290526024016107bb565b6115b783836116ea565b505050565b306001600160a01b037f00000000000000000000000000000000000000000000000000000000000000001614610ce05760405163703e46dd60e11b815260040160405180910390fd5b336116377f9016d09d72d40fdae2fd8ceac6b6234c7706214fd39c1cd1e609a0528c199300546001600160a01b031690565b6001600160a01b031614610ce05760405163118cdaa760e01b81523360048201526024016107bb565b7f9016d09d72d40fdae2fd8ceac6b6234c7706214fd39c1cd1e609a0528c19930080546001600160a01b031981166001600160a01b03848116918217845560405192169182907f8be0079c531659141344cd1fd0a4f28419497f9722a3daafe3b4186f6b6457e090600090a3505050565b6116d9611740565b61122581611789565b610ce0611740565b6116f382611791565b6040516001600160a01b038316907fbc7cd75a20ee27fd9adebab32041f755214dbc6bffa90cc0225b39da2e5c2d3b90600090a2805115611738576115b782826117f6565b610b9e61186e565b7ff0c57e16840df040f15088dc2f81fe391c3923bec73e23a9662efc9c229c6a0054600160401b900460ff16610ce057604051631afcd79f60e31b815260040160405180910390fd5b6111f2611740565b806001600160a01b03163b6000036117c757604051634c9c8ce360e01b81526001600160a01b03821660048201526024016107bb565b600080516020611d3f83398151915280546001600160a01b0319166001600160a01b0392909216919091179055565b6060600080846001600160a01b0316846040516118139190611d09565b600060405180830381855af49150503d806000811461184e576040519150601f19603f3d011682016040523d82523d6000602084013e611853565b606091505b509150915061186385838361188d565b925050505b92915050565b3415610ce05760405163b398979f60e01b815260040160405180910390fd5b6060826118a25761189d826118ec565b6118e5565b81511580156118b957506001600160a01b0384163b155b156118e257604051639996b31560e01b81526001600160a01b03851660048201526024016107bb565b50805b9392505050565b8051156118fc5780518082602001fd5b60405163d6bda27560e01b815260040160405180910390fd5b80356001600160a01b03811681146109d457600080fd5b60006020828403121561193e57600080fd5b6118e582611915565b60005b8381101561196257818101518382015260200161194a565b50506000910152565b602081526000825180602084015261198a816040850160208701611947565b601f01601f19169190910160400192915050565b634e487b7160e01b600052604160045260246000fd5b600067ffffffffffffffff808411156119cf576119cf61199e565b604051601f8501601f19908116603f011681019082821181831017156119f7576119f761199e565b81604052809350858152868686011115611a1057600080fd5b858560208301376000602087830101525050509392505050565b60008060408385031215611a3d57600080fd5b611a4683611915565b9150602083013567ffffffffffffffff811115611a6257600080fd5b8301601f81018513611a7357600080fd5b611a82858235602084016119b4565b9150509250929050565b60008060008060008060008060008060006101608c8e031215611aae57600080fd5b8b359a50611abe60208d01611915565b9950611acc60408d01611915565b985060608c013567ffffffffffffffff811115611ae857600080fd5b8c01601f81018e13611af957600080fd5b611b088e8235602084016119b4565b98505060808c01359650611b1e60a08d01611915565b9550611b2c60c08d01611915565b9450611b3a60e08d01611915565b93506101008c013592506101208c01359150611b596101408d01611915565b90509295989b509295989b9093969950565b60008060408385031215611b7e57600080fd5b611b8783611915565b9150611b9560208401611915565b90509250929050565b8082018082111561186857634e487b7160e01b600052601160045260246000fd5b600181811c90821680611bd357607f821691505b602082108103611bf357634e487b7160e01b600052602260045260246000fd5b50919050565b601f8211156115b7576000816000526020600020601f850160051c81016020861015611c225750805b601f850160051c820191505b81811015611c4157828155600101611c2e565b505050505050565b815167ffffffffffffffff811115611c6357611c6361199e565b611c7781611c718454611bbf565b84611bf9565b602080601f831160018114611cac5760008415611c945750858301515b600019600386901b1c1916600185901b178555611c41565b600085815260208120601f198616915b82811015611cdb57888601518255948401946001909101908401611cbc565b5085821015611cf95787850151600019600388901b60f8161c191681555b5050505050600190811b01905550565b60008251611d1b818460208701611947565b9190910192915050565b600060208284031215611d3757600080fd5b505191905056fe360894a13ba1a3210667c828492db98dca3e2076cc3735a920a3ca505d382bbca2646970667358221220c5f4984ce2b17af556b716bd4eba9933b7541c9f91d6793ca717c176670db99664736f6c63430008180033","linkReferences":{}},"methodIdentifiers":{"UPGRADE_INTERFACE_VERSION()":"ad3cb1cc","agreedWinner()":"9d9269ea","amount()":"aa8c217c","creationTime()":"d8270dce","decisionLockDuration()":"eb8d7d85","decisionMade()":"0ba83c6d","duelExpiredOrFinished()":"8747d724","duelId()":"dd2f5ad7","duelWallet()":"02b37679","factory()":"c45a0155","fundingDuration()":"1bc3a01c","initialize(uint256,address,address,string,uint256,address,address,address,uint256,uint256,address)":"95140ef6","judge()":"573255f4","judgeAccept()":"e494eacb","judgeAccepted()":"cb1bec6e","judgeDecide(address)":"455d0d8e","optionA()":"2157409d","optionB()":"136b914d","owner()":"8da5cb5b","payoutAddresses(address)":"60d4b8be","playerA()":"a285c54a","playerAgreed(address)":"0638d342","playerB()":"11bb1537","playerBAccept(address)":"9ac8c762","playerBAccepted()":"4e95716e","playersAgree(address)":"13285c7d","proxiableUUID()":"52d1902d","renounceOwnership()":"715018a6","setOptionsAddresses(address,address)":"cac91191","setPayoutAddress(address)":"33ea51a8","title()":"4a79d50c","transferOwnership(address)":"f2fde38b","updateStatus()":"5f60f485","upgradeToAndCall(address,bytes)":"4f1ef286"},"storageLayout":{"storage":[{"astId":52888,"contract":"src/Duel.sol:Duel","label":"duelId","offset":0,"slot":"0","type":"t_uint256"},{"astId":52890,"contract":"src/Duel.sol:Duel","label":"factory","offset":0,"slot":"1","type":"t_address"},{"astId":52892,"contract":"src/Duel.sol:Duel","label":"duelWallet","offset":0,"slot":"2","type":"t_address"},{"astId":52894,"contract":"src/Duel.sol:Duel","label":"judgeAccepted","offset":20,"slot":"2","type":"t_bool"},{"astId":52896,"contract":"src/Duel.sol:Duel","label":"playerBAccepted","offset":21,"slot":"2","type":"t_bool"},{"astId":52898,"contract":"src/Duel.sol:Duel","label":"decisionMade","offset":22,"slot":"2","type":"t_bool"},{"astId":52900,"contract":"src/Duel.sol:Duel","label":"optionA","offset":0,"slot":"3","type":"t_address"},{"astId":52902,"contract":"src/Duel.sol:Duel","label":"optionB","offset":0,"slot":"4","type":"t_address"},{"astId":52904,"contract":"src/Duel.sol:Duel","label":"playerA","offset":0,"slot":"5","type":"t_address"},{"astId":52906,"contract":"src/Duel.sol:Duel","label":"playerB","offset":0,"slot":"6","type":"t_address"},{"astId":52908,"contract":"src/Duel.sol:Duel","label":"judge","offset":0,"slot":"7","type":"t_address"},{"astId":52910,"contract":"src/Duel.sol:Duel","label":"agreedWinner","offset":0,"slot":"8","type":"t_address"},{"astId":52912,"contract":"src/Duel.sol:Duel","label":"amount","offset":0,"slot":"9","type":"t_uint256"},{"astId":52914,"contract":"src/Duel.sol:Duel","label":"creationTime","offset":0,"slot":"10","type":"t_uint256"},{"astId":52916,"contract":"src/Duel.sol:Duel","label":"fundingDuration","offset":0,"slot":"11","type":"t_uint256"},{"astId":52918,"contract":"src/Duel.sol:Duel","label":"decisionLockDuration","offset":0,"slot":"12","type":"t_uint256"},{"astId":52920,"contract":"src/Duel.sol:Duel","label":"title","offset":0,"slot":"13","type":"t_string_storage"},{"astId":52922,"contract":"src/Duel.sol:Duel","label":"duelExpiredOrFinished","offset":0,"slot":"14","type":"t_bool"},{"astId":52926,"contract":"src/Duel.sol:Duel","label":"payoutAddresses","offset":0,"slot":"15","type":"t_mapping(t_address,t_address)"},{"astId":52930,"contract":"src/Duel.sol:Duel","label":"playerAgreed","offset":0,"slot":"16","type":"t_mapping(t_address,t_bool)"}],"types":{"t_address":{"encoding":"inplace","label":"address","numberOfBytes":"20"},"t_bool":{"encoding":"inplace","label":"bool","numberOfBytes":"1"},"t_mapping(t_address,t_address)":{"encoding":"mapping","key":"t_address","label":"mapping(address => address)","numberOfBytes":"32","value":"t_address"},"t_mapping(t_address,t_bool)":{"encoding":"mapping","key":"t_address","label":"mapping(address => bool)","numberOfBytes":"32","value":"t_bool"},"t_string_storage":{"encoding":"bytes","label":"string","numberOfBytes":"32"},"t_uint256":{"encoding":"inplace","label":"uint256","numberOfBytes":"32"}}},"id":63}