{"abi":[{"type":"constructor","inputs":[{"name":"_owner","type":"address","internalType":"address"},{"name":"_duelImplementation","type":"address","internalType":"address"},{"name":"_duelWallet","type":"address","internalType":"address"},{"name":"_duelFee","type":"uint256","internalType":"uint256"}],"stateMutability":"nonpayable"},{"type":"function","name":"createDuel","inputs":[{"name":"_title","type":"string","internalType":"string"},{"name":"_payoutA","type":"address","internalType":"address"},{"name":"_playerB","type":"address","internalType":"address"},{"name":"_targetAmount","type":"uint256","internalType":"uint256"},{"name":"_fundingDuration","type":"uint256","internalType":"uint256"},{"name":"_decisionLockDuration","type":"uint256","internalType":"uint256"},{"name":"_judge","type":"address","internalType":"address"}],"outputs":[{"name":"","type":"address","internalType":"address"}],"stateMutability":"payable"},{"type":"function","name":"duelFee","inputs":[],"outputs":[{"name":"","type":"uint256","internalType":"uint256"}],"stateMutability":"view"},{"type":"function","name":"duelImplementation","inputs":[],"outputs":[{"name":"","type":"address","internalType":"address"}],"stateMutability":"view"},{"type":"function","name":"duelWallet","inputs":[],"outputs":[{"name":"","type":"address","internalType":"address"}],"stateMutability":"view"},{"type":"function","name":"owner","inputs":[],"outputs":[{"name":"","type":"address","internalType":"address"}],"stateMutability":"view"},{"type":"function","name":"pause","inputs":[],"outputs":[],"stateMutability":"nonpayable"},{"type":"function","name":"paused","inputs":[],"outputs":[{"name":"","type":"bool","internalType":"bool"}],"stateMutability":"view"},{"type":"function","name":"renounceOwnership","inputs":[],"outputs":[],"stateMutability":"nonpayable"},{"type":"function","name":"setDuelWallet","inputs":[{"name":"_newWallet","type":"address","internalType":"address"}],"outputs":[],"stateMutability":"nonpayable"},{"type":"function","name":"setFee","inputs":[{"name":"_newFee","type":"uint256","internalType":"uint256"}],"outputs":[],"stateMutability":"nonpayable"},{"type":"function","name":"setImplementation","inputs":[{"name":"_newImplementation","type":"address","internalType":"address"}],"outputs":[],"stateMutability":"nonpayable"},{"type":"function","name":"transferOwnership","inputs":[{"name":"newOwner","type":"address","internalType":"address"}],"outputs":[],"stateMutability":"nonpayable"},{"type":"function","name":"unpause","inputs":[],"outputs":[],"stateMutability":"nonpayable"},{"type":"event","name":"DuelCreated","inputs":[{"name":"tokenId","type":"uint256","indexed":true,"internalType":"uint256"},{"name":"duel","type":"address","indexed":true,"internalType":"address"}],"anonymous":false},{"type":"event","name":"NewDuelWallet","inputs":[{"name":"newWallet","type":"address","indexed":true,"internalType":"address"}],"anonymous":false},{"type":"event","name":"NewFee","inputs":[{"name":"newFee","type":"uint256","indexed":true,"internalType":"uint256"}],"anonymous":false},{"type":"event","name":"NewImplementation","inputs":[{"name":"newImplementation","type":"address","indexed":true,"internalType":"address"}],"anonymous":false},{"type":"event","name":"OwnershipTransferred","inputs":[{"name":"previousOwner","type":"address","indexed":true,"internalType":"address"},{"name":"newOwner","type":"address","indexed":true,"internalType":"address"}],"anonymous":false},{"type":"event","name":"Paused","inputs":[{"name":"account","type":"address","indexed":false,"internalType":"address"}],"anonymous":false},{"type":"event","name":"Unpaused","inputs":[{"name":"account","type":"address","indexed":false,"internalType":"address"}],"anonymous":false},{"type":"error","name":"DuelFactory__InvalidAddress","inputs":[]},{"type":"error","name":"DuelFactory__InvalidDurations","inputs":[]},{"type":"error","name":"DuelFactory__InvalidETHValue","inputs":[]},{"type":"error","name":"DuelFactory__InvalidFee","inputs":[]},{"type":"error","name":"DuelFactory__InvalidImplementation","inputs":[]},{"type":"error","name":"DuelFactory__InvalidPlayer","inputs":[]},{"type":"error","name":"DuelFactory__InvalidTargetAmount","inputs":[]},{"type":"error","name":"EnforcedPause","inputs":[]},{"type":"error","name":"ExpectedPause","inputs":[]},{"type":"error","name":"OwnableInvalidOwner","inputs":[{"name":"owner","type":"address","internalType":"address"}]},{"type":"error","name":"OwnableUnauthorizedAccount","inputs":[{"name":"account","type":"address","internalType":"address"}]}],"bytecode":{"object":"0x608060405234801561001057600080fd5b5060405161195d38038061195d83398101604081905261002f91610178565b836001600160a01b03811661005e57604051631e4fbdf760e01b81526000600482015260240160405180910390fd5b6100678161010c565b506000805460ff60a01b1916905561271081111561009857604051634a25605160e11b815260040160405180910390fd5b6001600160a01b03831615806100b557506001600160a01b038216155b156100d35760405163c490608160e01b815260040160405180910390fd5b600380546001600160a01b039485166001600160a01b0319918216179091556004805493909416921691909117909155600255506101c3565b600080546001600160a01b038381166001600160a01b0319831681178455604051919092169283917f8be0079c531659141344cd1fd0a4f28419497f9722a3daafe3b4186f6b6457e09190a35050565b80516001600160a01b038116811461017357600080fd5b919050565b6000806000806080858703121561018e57600080fd5b6101978561015c565b93506101a56020860161015c565b92506101b36040860161015c565b6060959095015193969295505050565b61178b806101d26000396000f3fe608060405260043610620000d25760003560e01c8063715018a611620000895780638da5cb5b11620000605780638da5cb5b146200020f578063d784d426146200022f578063e4863c9b1462000254578063f2fde38b146200027b57600080fd5b8063715018a614620001ba5780638456cb5914620001d257806389baf81014620001ea57600080fd5b806302b3767914620000d75780633f4ba83a1462000116578063457c371514620001305780635c975abb146200014757806360ec104f146200017357806369fe0e2d1462000195575b600080fd5b348015620000e457600080fd5b50600454620000f9906001600160a01b031681565b6040516001600160a01b0390911681526020015b60405180910390f35b3480156200012357600080fd5b506200012e620002a0565b005b620000f96200014136600462000966565b620002c0565b3480156200015457600080fd5b50600054600160a01b900460ff1660405190151581526020016200010d565b3480156200018057600080fd5b50600354620000f9906001600160a01b031681565b348015620001a257600080fd5b506200012e620001b436600462000a76565b620005f3565b348015620001c757600080fd5b506200012e62000654565b348015620001df57600080fd5b506200012e6200066a565b348015620001f757600080fd5b506200012e6200020936600462000a90565b62000688565b3480156200021c57600080fd5b506000546001600160a01b0316620000f9565b3480156200023c57600080fd5b506200012e6200024e36600462000a90565b620006dc565b3480156200026157600080fd5b506200026c60025481565b6040519081526020016200010d565b3480156200028857600080fd5b506200012e6200029a36600462000a90565b6200075c565b620002aa620007a4565b620002b4620007d3565b620002be620007fe565b565b6000620002cc62000855565b6001600160a01b038616331480620002eb57506001600160a01b038616155b80620003085750816001600160a01b0316866001600160a01b0316145b806200031c57506001600160a01b03821633145b156200033b576040516353f7b4e560e11b815260040160405180910390fd5b846000036200035d5760405163d4a5ec0360e01b815260040160405180910390fd5b3415806200036a57508434115b156200038957604051636d43c49b60e01b815260040160405180910390fd5b83831015620003ab57604051638b3fd19b60e01b815260040160405180910390fd5b6001805460009182620003be8362000ab5565b9190505590506000600360009054906101000a90046001600160a01b03168230600460009054906101000a90046001600160a01b03168d8b8e338f8e8e8e604051602401620004189b9a9998979695949392919062000b25565b60408051601f198184030181529181526020820180516001600160e01b0316634a8a077b60e11b179052516200044e9062000917565b6200045b92919062000b9e565b604051809103906000f08015801562000478573d6000803e3d6000fd5b50905060003482898960025433604051620004939062000925565b6001600160a01b039586168152602081019490945260408401929092526060830152909116608082015260a0016040518091039082f0905080158015620004de573d6000803e3d6000fd5b50905060008289896002546000604051620004f99062000925565b6001600160a01b039586168152602081019490945260408401929092526060830152909116608082015260a001604051809103906000f08015801562000543573d6000803e3d6000fd5b5060405163cac9119160e01b81526001600160a01b03848116600483015280831660248301529192509084169063cac9119190604401600060405180830381600087803b1580156200059457600080fd5b505af1158015620005a9573d6000803e3d6000fd5b50506040516001600160a01b03861692508691507fcd26131b45150811014e8f4d6f6c04f24f83a2571aaa878996973b82b2ab2d3f90600090a350909a9950505050505050505050565b620005fd620007a4565b6127108111156200062157604051634a25605160e11b815260040160405180910390fd5b600281905560405181907f63fe946ed58429ac3c5e64d4356ff92c26d7fa1e73586515df8ba9f059ab54a590600090a250565b6200065e620007a4565b620002be600062000881565b62000674620007a4565b6200067e62000855565b620002be620008d1565b62000692620007a4565b600480546001600160a01b0319166001600160a01b0383169081179091556040517fb5660d2c71a737e7df7155d9b3a9a9626ae701af080a9dada05bb7e45cc5644e90600090a250565b620006e6620007a4565b806001600160a01b03163b6000036200071257604051633672043f60e21b815260040160405180910390fd5b600380546001600160a01b0319166001600160a01b0383169081179091556040517f6b70829fcbe4891157f7a7496f9870927de3c8237adbe9cd39bae09b7382c40990600090a250565b62000766620007a4565b6001600160a01b0381166200079657604051631e4fbdf760e01b8152600060048201526024015b60405180910390fd5b620007a18162000881565b50565b6000546001600160a01b03163314620002be5760405163118cdaa760e01b81523360048201526024016200078d565b600054600160a01b900460ff16620002be57604051638dfc202b60e01b815260040160405180910390fd5b62000808620007d3565b6000805460ff60a01b191690557f5db9ee0a495bf2e6ff9c91a7834c1ba4fdd244a5e8aa4e537bd38aeae4b073aa335b6040516001600160a01b03909116815260200160405180910390a1565b600054600160a01b900460ff1615620002be5760405163d93c066560e01b815260040160405180910390fd5b600080546001600160a01b038381166001600160a01b0319831681178455604051919092169283917f8be0079c531659141344cd1fd0a4f28419497f9722a3daafe3b4186f6b6457e09190a35050565b620008db62000855565b6000805460ff60a01b1916600160a01b1790557f62e78cea01bee320cd4e420270b5ea74000d11b0c9f74754ebdbfc544b05a258620008383390565b61040a8062000bcd83390190565b61077f8062000fd783390190565b634e487b7160e01b600052604160045260246000fd5b80356001600160a01b03811681146200096157600080fd5b919050565b600080600080600080600060e0888a0312156200098257600080fd5b873567ffffffffffffffff808211156200099b57600080fd5b818a0191508a601f830112620009b057600080fd5b813581811115620009c557620009c562000933565b604051601f8201601f19908116603f01168101908382118183101715620009f057620009f062000933565b816040528281528d602084870101111562000a0a57600080fd5b82602086016020830137600060208483010152809b50505050505062000a336020890162000949565b955062000a436040890162000949565b9450606088013593506080880135925060a0880135915062000a6860c0890162000949565b905092959891949750929550565b60006020828403121562000a8957600080fd5b5035919050565b60006020828403121562000aa357600080fd5b62000aae8262000949565b9392505050565b60006001820162000ad657634e487b7160e01b600052601160045260246000fd5b5060010190565b6000815180845260005b8181101562000b055760208185018101518683018201520162000ae7565b506000602082860101526020601f19601f83011685010191505092915050565b8b81526001600160a01b038b811660208301528a811660408301526101606060830181905260009162000b5b8483018d62000add565b608085019b909b5298891660a0840152505094861660c086015292851660e085015261010084019190915261012083015290911661014090910152949350505050565b6001600160a01b038316815260406020820181905260009062000bc49083018462000add565b94935050505056fe608060405260405161040a38038061040a83398101604081905261002291610268565b61002c8282610033565b5050610352565b61003c82610092565b6040516001600160a01b038316907fbc7cd75a20ee27fd9adebab32041f755214dbc6bffa90cc0225b39da2e5c2d3b90600090a280511561008657610081828261010e565b505050565b61008e610185565b5050565b806001600160a01b03163b6000036100cd57604051634c9c8ce360e01b81526001600160a01b03821660048201526024015b60405180910390fd5b7f360894a13ba1a3210667c828492db98dca3e2076cc3735a920a3ca505d382bbc80546001600160a01b0319166001600160a01b0392909216919091179055565b6060600080846001600160a01b03168460405161012b9190610336565b600060405180830381855af49150503d8060008114610166576040519150601f19603f3d011682016040523d82523d6000602084013e61016b565b606091505b50909250905061017c8583836101a6565b95945050505050565b34156101a45760405163b398979f60e01b815260040160405180910390fd5b565b6060826101bb576101b682610205565b6101fe565b81511580156101d257506001600160a01b0384163b155b156101fb57604051639996b31560e01b81526001600160a01b03851660048201526024016100c4565b50805b9392505050565b8051156102155780518082602001fd5b60405163d6bda27560e01b815260040160405180910390fd5b634e487b7160e01b600052604160045260246000fd5b60005b8381101561025f578181015183820152602001610247565b50506000910152565b6000806040838503121561027b57600080fd5b82516001600160a01b038116811461029257600080fd5b60208401519092506001600160401b03808211156102af57600080fd5b818501915085601f8301126102c357600080fd5b8151818111156102d5576102d561022e565b604051601f8201601f19908116603f011681019083821181831017156102fd576102fd61022e565b8160405282815288602084870101111561031657600080fd5b610327836020830160208801610244565b80955050505050509250929050565b60008251610348818460208701610244565b9190910192915050565b60aa806103606000396000f3fe6080604052600a600c565b005b60186014601a565b6051565b565b6000604c7f360894a13ba1a3210667c828492db98dca3e2076cc3735a920a3ca505d382bbc546001600160a01b031690565b905090565b3660008037600080366000845af43d6000803e808015606f573d6000f35b3d6000fdfea2646970667358221220895f78c657fdbb2efb04db35f4d00c28af7e25b0984865c4f10e79eb718e70b464736f6c63430008180033608060405260405161077f38038061077f83398101604081905261002291610098565b600480546001600160a01b0319166001600160a01b038716179055600084905542600155600283905560038290553415610072576001600160a01b03811660009081526005602052604090203490555b50505050506100e8565b80516001600160a01b038116811461009357600080fd5b919050565b600080600080600060a086880312156100b057600080fd5b6100b98661007c565b94506020860151935060408601519250606086015191506100dc6080870161007c565b90509295509295909350565b610688806100f76000396000f3fe60806040526004361061007f5760003560e01c8063aa8c217c1161004e578063aa8c217c146101c1578063ac307773146101d7578063d8270dce146101ee578063e4863c9b1461020457600080fd5b80630855e4d1146101035780631bc3a01c146101405780631fc3b0e81461016457806327e235e31461019457600080fd5b366100fe576000544711156100a7576040516304bf4f2760e01b815260040160405180910390fd5b6002546001546100b7919061055c565b4211156100d757604051633da6f33160e21b815260040160405180910390fd5b33600090815260056020526040812080543492906100f690849061055c565b925050819055005b600080fd5b34801561010f57600080fd5b50600454610123906001600160a01b031681565b6040516001600160a01b0390911681526020015b60405180910390f35b34801561014c57600080fd5b5061015660025481565b604051908152602001610137565b34801561017057600080fd5b5061018461017f366004610587565b61021a565b6040519015158152602001610137565b3480156101a057600080fd5b506101566101af3660046105c0565b60056020526000908152604090205481565b3480156101cd57600080fd5b5061015660005481565b3480156101e357600080fd5b506101ec61038f565b005b3480156101fa57600080fd5b5061015660015481565b34801561021057600080fd5b5061015660035481565b6004546000906001600160a01b03163314610248576040516306b1fbcf60e51b815260040160405180910390fd5b60006127106003544761025b91906105e4565b61026591906105fb565b90506000610273824761061d565b90506000856001600160a01b03168260405160006040518083038185875af1925050503d80600081146102c2576040519150601f19603f3d011682016040523d82523d6000602084013e6102c7565b606091505b505090506000856001600160a01b03168460405160006040518083038185875af1925050503d8060008114610318576040519150601f19603f3d011682016040523d82523d6000602084013e61031d565b606091505b5050905081158061032c575080155b1561034a57604051631b8b373d60e01b815260040160405180910390fd5b60405147906001600160a01b038916907f6c114f03096d92b098f0f087d8fd4a756d362d86a9649a07142404e7fd1d77b590600090a360019450505050505b92915050565b6004805460408051635f60f48560e01b815290516001600160a01b03909216928392635f60f48592808301926000929182900301818387803b1580156103d457600080fd5b505af11580156103e8573d6000803e3d6000fd5b50505050806001600160a01b0316638747d7246040518163ffffffff1660e01b8152600401602060405180830381865afa15801561042a573d6000803e3d6000fd5b505050506040513d601f19601f8201168201806040525081019061044e9190610630565b61046b5760405163eca05dbd60e01b815260040160405180910390fd5b336000908152600560205260408120549081900361049c57604051631305650560e21b815260040160405180910390fd5b336000818152600560205260408082208290555190919083908381818185875af1925050503d80600081146104ed576040519150601f19603f3d011682016040523d82523d6000602084013e6104f2565b606091505b505090508061051457604051631b8b373d60e01b815260040160405180910390fd5b604051829033907fa65a8b4f7f65a1063243d7f7e9e4da00ff767599acf21549ef2548a45d1695ae90600090a3505050565b634e487b7160e01b600052601160045260246000fd5b8082018082111561038957610389610546565b6001600160a01b038116811461058457600080fd5b50565b6000806040838503121561059a57600080fd5b82356105a58161056f565b915060208301356105b58161056f565b809150509250929050565b6000602082840312156105d257600080fd5b81356105dd8161056f565b9392505050565b808202811582820484141761038957610389610546565b60008261061857634e487b7160e01b600052601260045260246000fd5b500490565b8181038181111561038957610389610546565b60006020828403121561064257600080fd5b815180151581146105dd57600080fdfea2646970667358221220737bce3519e88098c335178320b05ecb5de824cd378b270874e38c01f91c08d964736f6c63430008180033a2646970667358221220a6d0c15035f83d1ad9da287678b4be711e691e46a33feb8a7ebb173aa340a82164736f6c63430008180033","linkReferences":{}},"methodIdentifiers":{"createDuel(string,address,address,uint256,uint256,uint256,address)":"457c3715","duelFee()":"e4863c9b","duelImplementation()":"60ec104f","duelWallet()":"02b37679","owner()":"8da5cb5b","pause()":"8456cb59","paused()":"5c975abb","renounceOwnership()":"715018a6","setDuelWallet(address)":"89baf810","setFee(uint256)":"69fe0e2d","setImplementation(address)":"d784d426","transferOwnership(address)":"f2fde38b","unpause()":"3f4ba83a"},"storageLayout":{"storage":[{"astId":40823,"contract":"src/DuelFactory.sol:DuelFactory","label":"_owner","offset":0,"slot":"0","type":"t_address"},{"astId":41743,"contract":"src/DuelFactory.sol:DuelFactory","label":"_paused","offset":20,"slot":"0","type":"t_bool"},{"astId":52639,"contract":"src/DuelFactory.sol:DuelFactory","label":"_nextDuelId","offset":0,"slot":"1","type":"t_uint256"},{"astId":52641,"contract":"src/DuelFactory.sol:DuelFactory","label":"duelFee","offset":0,"slot":"2","type":"t_uint256"},{"astId":52643,"contract":"src/DuelFactory.sol:DuelFactory","label":"duelImplementation","offset":0,"slot":"3","type":"t_address"},{"astId":52645,"contract":"src/DuelFactory.sol:DuelFactory","label":"duelWallet","offset":0,"slot":"4","type":"t_address"}],"types":{"t_address":{"encoding":"inplace","label":"address","numberOfBytes":"20"},"t_bool":{"encoding":"inplace","label":"bool","numberOfBytes":"1"},"t_uint256":{"encoding":"inplace","label":"uint256","numberOfBytes":"32"}}},"id":60}